{
  "contractName": "Claims",
  "abi": [
    {
      "inputs": [
        {
          "internalType": "address",
          "name": "_owner",
          "type": "address"
        },
        {
          "internalType": "address",
          "name": "_allocations",
          "type": "address"
        },
        {
          "internalType": "uint256",
          "name": "_setUpDelay",
          "type": "uint256"
        }
      ],
      "payable": false,
      "stateMutability": "nonpayable",
      "type": "constructor"
    },
    {
      "anonymous": false,
      "inputs": [
        {
          "indexed": true,
          "internalType": "address",
          "name": "original",
          "type": "address"
        },
        {
          "indexed": true,
          "internalType": "address",
          "name": "amendedTo",
          "type": "address"
        }
      ],
      "name": "Amended",
      "type": "event"
    },
    {
      "anonymous": false,
      "inputs": [
        {
          "indexed": true,
          "internalType": "address",
          "name": "eth",
          "type": "address"
        },
        {
          "indexed": true,
          "internalType": "bytes32",
          "name": "dot",
          "type": "bytes32"
        },
        {
          "indexed": true,
          "internalType": "uint256",
          "name": "idx",
          "type": "uint256"
        }
      ],
      "name": "Claimed",
      "type": "event"
    },
    {
      "anonymous": false,
      "inputs": [
        {
          "indexed": true,
          "internalType": "address",
          "name": "eth",
          "type": "address"
        },
        {
          "indexed": true,
          "internalType": "uint256",
          "name": "idx",
          "type": "uint256"
        }
      ],
      "name": "IndexAssigned",
      "type": "event"
    },
    {
      "anonymous": false,
      "inputs": [
        {
          "indexed": true,
          "internalType": "bytes32",
          "name": "pubkey",
          "type": "bytes32"
        },
        {
          "indexed": false,
          "internalType": "uint256",
          "name": "newTotal",
          "type": "uint256"
        }
      ],
      "name": "InjectedSaleAmount",
      "type": "event"
    },
    {
      "anonymous": false,
      "inputs": [
        {
          "indexed": true,
          "internalType": "address",
          "name": "old",
          "type": "address"
        },
        {
          "indexed": true,
          "internalType": "address",
          "name": "current",
          "type": "address"
        }
      ],
      "name": "NewOwner",
      "type": "event"
    },
    {
      "anonymous": false,
      "inputs": [
        {
          "indexed": true,
          "internalType": "address",
          "name": "eth",
          "type": "address"
        },
        {
          "indexed": false,
          "internalType": "uint256",
          "name": "amount",
          "type": "uint256"
        }
      ],
      "name": "Vested",
      "type": "event"
    },
    {
      "anonymous": false,
      "inputs": [
        {
          "indexed": true,
          "internalType": "address",
          "name": "eth",
          "type": "address"
        },
        {
          "indexed": false,
          "internalType": "uint256",
          "name": "newTotal",
          "type": "uint256"
        }
      ],
      "name": "VestedIncreased",
      "type": "event"
    },
    {
      "constant": true,
      "inputs": [],
      "name": "UINT_MAX",
      "outputs": [
        {
          "internalType": "uint256",
          "name": "",
          "type": "uint256"
        }
      ],
      "payable": false,
      "stateMutability": "view",
      "type": "function"
    },
    {
      "constant": true,
      "inputs": [],
      "name": "allocationIndicator",
      "outputs": [
        {
          "internalType": "contract FrozenToken",
          "name": "",
          "type": "address"
        }
      ],
      "payable": false,
      "stateMutability": "view",
      "type": "function"
    },
    {
      "constant": true,
      "inputs": [
        {
          "internalType": "address",
          "name": "",
          "type": "address"
        }
      ],
      "name": "amended",
      "outputs": [
        {
          "internalType": "address",
          "name": "",
          "type": "address"
        }
      ],
      "payable": false,
      "stateMutability": "view",
      "type": "function"
    },
    {
      "constant": true,
      "inputs": [
        {
          "internalType": "uint256",
          "name": "",
          "type": "uint256"
        }
      ],
      "name": "claimed",
      "outputs": [
        {
          "internalType": "address",
          "name": "",
          "type": "address"
        }
      ],
      "payable": false,
      "stateMutability": "view",
      "type": "function"
    },
    {
      "constant": true,
      "inputs": [
        {
          "internalType": "address",
          "name": "",
          "type": "address"
        }
      ],
      "name": "claims",
      "outputs": [
        {
          "internalType": "uint256",
          "name": "index",
          "type": "uint256"
        },
        {
          "internalType": "bytes32",
          "name": "pubKey",
          "type": "bytes32"
        },
        {
          "internalType": "bool",
          "name": "hasIndex",
          "type": "bool"
        },
        {
          "internalType": "uint256",
          "name": "vested",
          "type": "uint256"
        }
      ],
      "payable": false,
      "stateMutability": "view",
      "type": "function"
    },
    {
      "constant": true,
      "inputs": [
        {
          "internalType": "bytes32",
          "name": "",
          "type": "bytes32"
        },
        {
          "internalType": "uint256",
          "name": "",
          "type": "uint256"
        }
      ],
      "name": "claimsForPubkey",
      "outputs": [
        {
          "internalType": "address",
          "name": "",
          "type": "address"
        }
      ],
      "payable": false,
      "stateMutability": "view",
      "type": "function"
    },
    {
      "constant": true,
      "inputs": [],
      "name": "endSetUpDelay",
      "outputs": [
        {
          "internalType": "uint256",
          "name": "",
          "type": "uint256"
        }
      ],
      "payable": false,
      "stateMutability": "view",
      "type": "function"
    },
    {
      "constant": true,
      "inputs": [],
      "name": "nextIndex",
      "outputs": [
        {
          "internalType": "uint256",
          "name": "",
          "type": "uint256"
        }
      ],
      "payable": false,
      "stateMutability": "view",
      "type": "function"
    },
    {
      "constant": true,
      "inputs": [],
      "name": "owner",
      "outputs": [
        {
          "internalType": "address",
          "name": "",
          "type": "address"
        }
      ],
      "payable": false,
      "stateMutability": "view",
      "type": "function"
    },
    {
      "constant": true,
      "inputs": [
        {
          "internalType": "bytes32",
          "name": "",
          "type": "bytes32"
        }
      ],
      "name": "saleAmounts",
      "outputs": [
        {
          "internalType": "uint256",
          "name": "",
          "type": "uint256"
        }
      ],
      "payable": false,
      "stateMutability": "view",
      "type": "function"
    },
    {
      "constant": false,
      "inputs": [
        {
          "internalType": "address",
          "name": "_new",
          "type": "address"
        }
      ],
      "name": "setOwner",
      "outputs": [],
      "payable": false,
      "stateMutability": "nonpayable",
      "type": "function"
    },
    {
      "constant": false,
      "inputs": [
        {
          "internalType": "address[]",
          "name": "_origs",
          "type": "address[]"
        },
        {
          "internalType": "address[]",
          "name": "_amends",
          "type": "address[]"
        }
      ],
      "name": "amend",
      "outputs": [],
      "payable": false,
      "stateMutability": "nonpayable",
      "type": "function"
    },
    {
      "constant": false,
      "inputs": [
        {
          "internalType": "address[]",
          "name": "_eths",
          "type": "address[]"
        },
        {
          "internalType": "uint256[]",
          "name": "_vestingAmts",
          "type": "uint256[]"
        }
      ],
      "name": "setVesting",
      "outputs": [],
      "payable": false,
      "stateMutability": "nonpayable",
      "type": "function"
    },
    {
      "constant": false,
      "inputs": [
        {
          "internalType": "address[]",
          "name": "_eths",
          "type": "address[]"
        },
        {
          "internalType": "uint256[]",
          "name": "_vestingAmts",
          "type": "uint256[]"
        }
      ],
      "name": "increaseVesting",
      "outputs": [],
      "payable": false,
      "stateMutability": "nonpayable",
      "type": "function"
    },
    {
      "constant": false,
      "inputs": [
        {
          "internalType": "bytes32[]",
          "name": "_pubkeys",
          "type": "bytes32[]"
        },
        {
          "internalType": "uint256[]",
          "name": "_amounts",
          "type": "uint256[]"
        }
      ],
      "name": "injectSaleAmount",
      "outputs": [],
      "payable": false,
      "stateMutability": "nonpayable",
      "type": "function"
    },
    {
      "constant": true,
      "inputs": [
        {
          "internalType": "bytes32",
          "name": "_who",
          "type": "bytes32"
        }
      ],
      "name": "balanceOfPubkey",
      "outputs": [
        {
          "internalType": "uint256",
          "name": "",
          "type": "uint256"
        }
      ],
      "payable": false,
      "stateMutability": "view",
      "type": "function"
    },
    {
      "constant": false,
      "inputs": [],
      "name": "freeze",
      "outputs": [],
      "payable": false,
      "stateMutability": "nonpayable",
      "type": "function"
    },
    {
      "constant": false,
      "inputs": [
        {
          "internalType": "address[]",
          "name": "_eths",
          "type": "address[]"
        }
      ],
      "name": "assignIndices",
      "outputs": [],
      "payable": false,
      "stateMutability": "nonpayable",
      "type": "function"
    },
    {
      "constant": false,
      "inputs": [
        {
          "internalType": "address",
          "name": "_eth",
          "type": "address"
        },
        {
          "internalType": "bytes32",
          "name": "_pubKey",
          "type": "bytes32"
        }
      ],
      "name": "claim",
      "outputs": [],
      "payable": false,
      "stateMutability": "nonpayable",
      "type": "function"
    },
    {
      "constant": true,
      "inputs": [],
      "name": "claimedLength",
      "outputs": [
        {
          "internalType": "uint256",
          "name": "",
          "type": "uint256"
        }
      ],
      "payable": false,
      "stateMutability": "view",
      "type": "function"
    },
    {
      "constant": true,
      "inputs": [
        {
          "internalType": "address",
          "name": "_eth",
          "type": "address"
        }
      ],
      "name": "hasClaimed",
      "outputs": [
        {
          "internalType": "bool",
          "name": "",
          "type": "bool"
        }
      ],
      "payable": false,
      "stateMutability": "view",
      "type": "function"
    },
    {
      "constant": true,
      "inputs": [
        {
          "internalType": "address",
          "name": "_eth",
          "type": "address"
        }
      ],
      "name": "hasAllocation",
      "outputs": [
        {
          "internalType": "bool",
          "name": "",
          "type": "bool"
        }
      ],
      "payable": false,
      "stateMutability": "view",
      "type": "function"
    }
  ],
  "bytecode": "0x608060405234801561001057600080fd5b50604051611cf1380380611cf18339818101604052606081101561003357600080fd5b50805160208201516040909201519091906001600160a01b0383166100b957604080517f08c379a000000000000000000000000000000000000000000000000000000000815260206004820152601e60248201527f4d7573742070726f7669646520616e206f776e657220616464726573732e0000604482015290519081900360640190fd5b6001600160a01b038216610118576040517f08c379a0000000000000000000000000000000000000000000000000000000008152600401808060200182810382526024815260200180611ccd6024913960400191505060405180910390fd5b60008111610171576040517f08c379a0000000000000000000000000000000000000000000000000000000008152600401808060200182810382526030815260200180611c9d6030913960400191505060405180910390fd5b600080546001600160a01b039485166001600160a01b03199182161790915560018054939094169216919091179091554301600855611ae8806101b56000396000f3fe608060405234801561001057600080fd5b50600436106101425760003560e01c80639af9cc27116100b8578063c6788bdd1161007c578063c6788bdd146105e8578063c8622c2414610634578063d2c41b5714610660578063dbe7e3bd14610668578063edd8310414610685578063fc7e9c6f146106ab57610142565b80639af9cc27146103bb5780639ca53c51146103e15780639fd0214c146103fe578063c3496529146104bc578063c37b85a61461057a57610142565b806362a5af3b1161010a57806362a5af3b146102a357806363aa56b1146102ab57806373b2e80e14610369578063782d2b53146103a35780638da5cb5b146103ab57806393e40f7e146103b357610142565b806311fb3de11461014757806313af4035146101865780631db2bbe8146101ae57806342ac39a8146101b657806349c3d477146101e5575b600080fd5b61016a6004803603604081101561015d57600080fd5b50803590602001356106b3565b604080516001600160a01b039092168252519081900360200190f35b6101ac6004803603602081101561019c57600080fd5b50356001600160a01b03166106e8565b005b61016a61078f565b6101d3600480360360208110156101cc57600080fd5b503561079e565b60408051918252519081900360200190f35b6101ac600480360360408110156101fb57600080fd5b810190602081018135600160201b81111561021557600080fd5b82018360208201111561022757600080fd5b803590602001918460208302840111600160201b8311171561024857600080fd5b919390929091602081019035600160201b81111561026557600080fd5b82018360208201111561027757600080fd5b803590602001918460208302840111600160201b8311171561029857600080fd5b5090925090506107b0565b6101ac61093b565b6101ac600480360360408110156102c157600080fd5b810190602081018135600160201b8111156102db57600080fd5b8201836020820111156102ed57600080fd5b803590602001918460208302840111600160201b8311171561030e57600080fd5b919390929091602081019035600160201b81111561032b57600080fd5b82018360208201111561033d57600080fd5b803590602001918460208302840111600160201b8311171561035e57600080fd5b50909250905061098f565b61038f6004803603602081101561037f57600080fd5b50356001600160a01b0316610bf7565b604080519115158252519081900360200190f35b6101d3610c1b565b61016a610c21565b6101d3610c30565b61038f600480360360208110156103d157600080fd5b50356001600160a01b0316610c36565b6101d3600480360360208110156103f757600080fd5b5035610cba565b6101ac6004803603604081101561041457600080fd5b810190602081018135600160201b81111561042e57600080fd5b82018360208201111561044057600080fd5b803590602001918460208302840111600160201b8311171561046157600080fd5b919390929091602081019035600160201b81111561047e57600080fd5b82018360208201111561049057600080fd5b803590602001918460208302840111600160201b831117156104b157600080fd5b509092509050610db4565b6101ac600480360360408110156104d257600080fd5b810190602081018135600160201b8111156104ec57600080fd5b8201836020820111156104fe57600080fd5b803590602001918460208302840111600160201b8311171561051f57600080fd5b919390929091602081019035600160201b81111561053c57600080fd5b82018360208201111561054e57600080fd5b803590602001918460208302840111600160201b8311171561056f57600080fd5b509092509050610fb6565b6101ac6004803603602081101561059057600080fd5b810190602081018135600160201b8111156105aa57600080fd5b8201836020820111156105bc57600080fd5b803590602001918460208302840111600160201b831117156105dd57600080fd5b509092509050611213565b61060e600480360360208110156105fe57600080fd5b50356001600160a01b03166112f3565b604080519485526020850193909352901515838301526060830152519081900360800190f35b6101ac6004803603604081101561064a57600080fd5b506001600160a01b03813516906020013561131f565b6101d3611675565b61016a6004803603602081101561067e57600080fd5b503561167b565b61016a6004803603602081101561069b57600080fd5b50356001600160a01b03166116a2565b6101d36116bd565b600560205281600052604060002081815481106106cc57fe5b6000918252602090912001546001600160a01b03169150829050565b6000546001600160a01b03163314610734576040805162461bcd60e51b815260206004820152600a60248201526927b7363c9037bbb732b960b11b604482015290519081900360640190fd5b600080546040516001600160a01b03808516939216917f70aea8d848e8a90fb7661b227dc522eb6395c3dac71b63cb59edd5c9899b236491a3600080546001600160a01b0319166001600160a01b0392909216919091179055565b6001546001600160a01b031681565b60046020526000908152604090205481565b6000546001600160a01b031633146107fc576040805162461bcd60e51b815260206004820152600a60248201526927b7363c9037bbb732b960b11b604482015290519081900360640190fd5b82811461080857600080fd5b60005b8381101561093457600085858381811061082157fe5b905060200201359050600084848481811061083857fe5b905060200201359050600081116108805760405162461bcd60e51b815260040180806020018281038252602c8152602001806118ad602c913960400191505060405180910390fd5b6000828152600460205260409020548181018181116108dd576040805162461bcd60e51b815260206004820152601460248201527327bb32b9333637bb9034b71030b23234ba34b7b760611b604482015290519081900360640190fd5b6000848152600460209081526040918290208390558151838152915186927f572e24c41e0a8fb122e74d5ae46960a12d21bc621ae05d27b56958e46dab916c92908290030190a250506001909201915061080b9050565b5050505050565b6000546001600160a01b03163314610987576040805162461bcd60e51b815260206004820152600a60248201526927b7363c9037bbb732b960b11b604482015290519081900360640190fd5b600019600855565b6000546001600160a01b031633146109db576040805162461bcd60e51b815260206004820152600a60248201526927b7363c9037bbb732b960b11b604482015290519081900360640190fd5b828114610a195760405162461bcd60e51b81526004018080602001828103825260238152602001806119cf6023913960400191505060405180910390fd5b60005b8181101561093457610a48858583818110610a3357fe5b905060200201356001600160a01b0316610bf7565b15610a9a576040805162461bcd60e51b815260206004820152601c60248201527f416464726573732068617320616c726561647920636c61696d65642e00000000604482015290519081900360640190fd5b610abe858583818110610aa957fe5b905060200201356001600160a01b0316610c36565b610af95760405162461bcd60e51b815260040180806020018281038252602781526020018061197d6027913960400191505060405180910390fd5b828282818110610b0557fe5b905060200201356001600160a01b031660076000878785818110610b2557fe5b905060200201356001600160a01b03166001600160a01b03166001600160a01b0316815260200190815260200160002060006101000a8154816001600160a01b0302191690836001600160a01b03160217905550828282818110610b8557fe5b905060200201356001600160a01b03166001600160a01b0316858583818110610baa57fe5b905060200201356001600160a01b03166001600160a01b03167f385f6a4b73038a5f14e3482732f99dde086b6fd0930af57604250b72726f439260405160405180910390a3600101610a1c565b6001600160a01b03811660009081526003602052604090206001015415155b919050565b60001981565b6000546001600160a01b031681565b60065490565b600154604080516370a0823160e01b81526001600160a01b0384811660048301529151600093849316916370a08231916024808301926020929190829003018186803b158015610c8557600080fd5b505afa158015610c99573d6000803e3d6000fd5b505050506040513d6020811015610caf57600080fd5b505115159392505050565b6000818152600560205260408120805415610da0576000805b8254811015610d865760015483546001600160a01b03909116906370a0823190859084908110610cff57fe5b60009182526020918290200154604080516001600160e01b031960e086901b1681526001600160a01b0390921660048301525160248083019392829003018186803b158015610d4d57600080fd5b505afa158015610d61573d6000803e3d6000fd5b505050506040513d6020811015610d7757600080fd5b50519190910190600101610cd3565b50600084815260046020526040902054019150610c169050565b505060009081526004602052604090205490565b6000546001600160a01b03163314610e00576040805162461bcd60e51b815260206004820152600a60248201526927b7363c9037bbb732b960b11b604482015290519081900360640190fd5b828114610e3e5760405162461bcd60e51b81526004018080602001828103825260238152602001806119cf6023913960400191505060405180910390fd5b60005b8381101561093457600060036000878785818110610e5b57fe5b905060200201356001600160a01b03166001600160a01b03166001600160a01b0316815260200190815260200160002090506000848484818110610e9b57fe5b9050602002013511610ede5760405162461bcd60e51b815260040180806020018281038252602981526020018061192f6029913960400191505060405180910390fd5b60038101546000858585818110610ef157fe5b9050602002013582019050818111610f48576040805162461bcd60e51b815260206004820152601560248201527427bb32b9333637bb9034b71030b23234ba34b7b71760591b604482015290519081900360640190fd5b60038301819055878785818110610f5b57fe5b905060200201356001600160a01b03166001600160a01b03167fddd46b2454e8e8195e43bab9d77da6c175cf57feab9936752d696f980bd22f5c826040518082815260200191505060405180910390a2505050600101610e41565b6000546001600160a01b03163314611002576040805162461bcd60e51b815260206004820152600a60248201526927b7363c9037bbb732b960b11b604482015290519081900360640190fd5b8281146110405760405162461bcd60e51b81526004018080602001828103825260238152602001806119cf6023913960400191505060405180910390fd5b60005b838110156109345760006003600087878581811061105d57fe5b905060200201356001600160a01b03166001600160a01b03166001600160a01b03168152602001908152602001600020905061109e868684818110610a3357fe5b156110f0576040805162461bcd60e51b815260206004820152601c60248201527f4163636f756e74206d757374206e6f7420626520636c61696d65642e00000000604482015290519081900360640190fd5b6003810154156111315760405162461bcd60e51b81526004018080602001828103825260238152602001806118d96023913960400191505060405180910390fd5b83838381811061113d57fe5b90506020020135600014156111835760405162461bcd60e51b815260040180806020018281038252602981526020018061192f6029913960400191505060405180910390fd5b83838381811061118f57fe5b60200291909101356003830155508585838181106111a957fe5b905060200201356001600160a01b03166001600160a01b03167ed5958799b183a7b738d3ad5e711305293dd5076a37a4e3b7e6611dea6114f38585858181106111ee57fe5b905060200201356040518082815260200191505060405180910390a250600101611043565b600854431015611266576000546001600160a01b031633146112665760405162461bcd60e51b815260040180806020018281038252604f8152602001806119f2604f913960600191505060405180910390fd5b60005b818110156112ee5761129583838381811061128057fe5b905060200201356001600160a01b03166116c3565b6112e6576040805162461bcd60e51b815260206004820181905260248201527f41737369676e696e6720746865206e65787420696e646578206661696c65642e604482015290519081900360640190fd5b600101611269565b505050565b6003602081905260009182526040909120805460018201546002830154929093015490929160ff169084565b6008544310156113605760405162461bcd60e51b8152600401808060200182810382526040815260200180611a746040913960400191505060405180910390fd5b8161136a81610c36565b6113a55760405162461bcd60e51b815260040180806020018281038252602781526020018061197d6027913960400191505060405180910390fd5b6001600160a01b038316600090815260036020526040902060010154839015611415576040805162461bcd60e51b815260206004820152601c60248201527f4163636f756e742068617320616c726561647920636c61696d65642e00000000604482015290519081900360640190fd5b826114515760405162461bcd60e51b81526004018080602001828103825260338152602001806118fc6033913960400191505060405180910390fd5b6001600160a01b0384811660009081526007602052604090205416156114ce576001600160a01b038481166000908152600760205260409020541633146114c95760405162461bcd60e51b8152600401808060200182810382526033815260200180611a416033913960400191505060405180910390fd5b611515565b6001600160a01b03841633146115155760405162461bcd60e51b81526004018080602001828103825260258152602001806119586025913960400191505060405180910390fd5b6001600160a01b03841660009081526003602052604090205415801561155757506001600160a01b03841660009081526003602052604090206002015460ff16155b156115b657611565846116c3565b6115b6576040805162461bcd60e51b815260206004820181905260248201527f41737369676e696e6720746865206e65787420696e646578206661696c65642e604482015290519081900360640190fd5b6001600160a01b038416600081815260036020818152604080842060018082018a9055600680548083019091557ff652222313e28459528d920b65115c16c04f3efc82aaedc97be59f3f377c0d3f0180546001600160a01b031990811689179091558a87526005855283872080549283018155875284872090910180549091168717905585855292909152905490519092869290917f9b01158d4bc10c112ba32b5240cda97e49e2eb86021f03f6a0f460342ac4dfda9190a450505050565b60085481565b6006818154811061168857fe5b6000918252602090912001546001600160a01b0316905081565b6007602052600090815260409020546001600160a01b031681565b60025481565b6000816116cf81610c36565b61170a5760405162461bcd60e51b815260040180806020018281038252602781526020018061197d6027913960400191505060405180910390fd5b6001600160a01b03831660009081526003602052604090206001015483901561177a576040805162461bcd60e51b815260206004820152601c60248201527f4163636f756e742068617320616c726561647920636c61696d65642e00000000604482015290519081900360640190fd5b6001600160a01b038416600090815260036020526040902054156117e5576040805162461bcd60e51b815260206004820152601960248201527f43616e6e6f7420726561737369676e20616e20696e6465782e00000000000000604482015290519081900360640190fd5b6001600160a01b03841660009081526003602052604090206002015460ff16156118405760405162461bcd60e51b815260040180806020018281038252602b8152602001806119a4602b913960400191505060405180910390fd5b60028054600180820183556001600160a01b038716600081815260036020526040808220858155909501805460ff191690931790925592519192839290917ffe8e0f7f7b06a0461a35a3efd185ab04bf2c1b47d74ced0ad04fc5dda048d4aa91a350600194935050505056fe4d75737420696e6a65637420612073616c6520616d6f756e742067726561746572207468616e207a65726f2e4163636f756e74206d757374206e6f742062652076657374656420616c72656164792e4661696c656420746f2070726f7669646520616e2045643235353139206f722053523235353139207075626c6963206b65792e56657374696e6720616d6f756e74206d7573742062652067726561746572207468616e207a65726f2e53656e646572206973206e6f742074686520616c6c6f636174696f6e20616464726573732e457468657265756d206164647265737320686173206e6f20444f5420616c6c6f636174696f6e2e416464726573732068617320616c7265616479206265656e2061737369676e656420616e20696e6465782e4d757374207375626d697420617272617973206f6620657175616c206c656e6774682e4f6e6c79206f776e657220697320616c6c6f77656420746f2063616c6c20746869732066756e6374696f6e206265666f72652074686520656e64206f6620746865207365742075702064656c61792e4164647265737320697320616d656e64656420616e642073656e646572206973206e6f742074686520616d656e646d656e742e546869732066756e6374696f6e206973206f6e6c792065766f6361626c652061667465722074686520736574557044656c61792068617320656c61707365642ea265627a7a7231582072cbcb50af5e806a11520e2c2f7d0302bc15314188150761b1620e7c713c2f9f64736f6c634300050d00324d7573742070726f766964652061206e6f6e2d7a65726f20617267756d656e7420746f205f736574557044656c61792e4d7573742070726f7669646520616e20616c6c6f636174696f6e7320616464726573732e",
  "source": "pragma solidity 0.5.13;\n\nimport \"./FrozenToken.sol\";\n\n/// @author Web3 Foundation\n/// @title  Claims\n///         Allows allocations to be claimed to Polkadot public keys.\ncontract Claims is Owned {\n\n    // The maximum number contained by the type `uint`. Used to freeze the contract from claims.\n    uint constant public UINT_MAX =  115792089237316195423570985008687907853269984665640564039457584007913129639935;\n\n    struct Claim {\n        uint    index;          // Index for short address.\n        bytes32 pubKey;         // x25519 public key.\n        bool    hasIndex;       // Has the index been set?\n        uint    vested;         // Amount of allocation that is vested.\n    }\n\n    // The address of the allocation indicator contract.\n    FrozenToken public allocationIndicator; // 0xb59f67A8BfF5d8Cd03f6AC17265c550Ed8F33907\n\n    // The next index to be assigned.\n    uint public nextIndex;\n\n    // Maps allocations to `Claim` data.\n    mapping (address => Claim) public claims;\n\n    // A mapping from pubkey to the sale amount from second sale.\n    mapping (bytes32 => uint) public saleAmounts;\n\n    // A mapping of pubkeys => an array of ethereum addresses that have made a claim for this pubkey.\n    // - Used for getting the balance. \n    mapping (bytes32 => address[]) public claimsForPubkey;\n\n    // Addresses that already claimed so we can easily grab them from state.\n    address[] public claimed;\n\n    // Amended keys, old address => new address. New address is allowed to claim for old address.\n    mapping (address => address) public amended;\n\n    // Block number that the set up delay ends.\n    uint public endSetUpDelay;\n\n    // Event for when an allocation address amendment is made.\n    event Amended(address indexed original, address indexed amendedTo);\n    // Event for when an allocation is claimed to a Polkadot address.\n    event Claimed(address indexed eth, bytes32 indexed dot, uint indexed idx);\n    // Event for when an index is assigned to an allocation.\n    event IndexAssigned(address indexed eth, uint indexed idx);\n    // Event for when vesting is set on an allocation.\n    event Vested(address indexed eth, uint amount);\n    // Event for when vesting is increased on an account.\n    event VestedIncreased(address indexed eth, uint newTotal);\n    // Event that triggers when a new sale injection is made.\n    event InjectedSaleAmount(bytes32 indexed pubkey, uint newTotal);\n\n    constructor(address _owner, address _allocations, uint _setUpDelay) public {\n        require(_owner != address(0x0), \"Must provide an owner address.\");\n        require(_allocations != address(0x0), \"Must provide an allocations address.\");\n        require(_setUpDelay > 0, \"Must provide a non-zero argument to _setUpDelay.\");\n\n        owner = _owner;\n        allocationIndicator = FrozenToken(_allocations);\n        \n        endSetUpDelay = block.number + _setUpDelay;\n    }\n\n    /// Allows owner to manually amend allocations to a new address that can claim.\n    /// @dev The given arrays must be same length and index must map directly.\n    /// @param _origs An array of original (allocation) addresses.\n    /// @param _amends An array of the new addresses which can claim those allocations.\n    function amend(address[] calldata _origs, address[] calldata _amends)\n        external\n        only_owner\n    {\n        require(\n            _origs.length == _amends.length,\n            \"Must submit arrays of equal length.\"\n        );\n\n        for (uint i = 0; i < _amends.length; i++) {\n            require(!hasClaimed(_origs[i]), \"Address has already claimed.\");\n            require(hasAllocation(_origs[i]), \"Ethereum address has no DOT allocation.\");\n            amended[_origs[i]] = _amends[i];\n            emit Amended(_origs[i], _amends[i]);\n        }\n    }\n\n    /// Allows owner to manually toggle vesting onto allocations.\n    /// @param _eths The addresses for which to set vesting.\n    /// @param _vestingAmts The amounts that the accounts are vested.\n    function setVesting(address[] calldata _eths, uint[] calldata _vestingAmts)\n        external\n        only_owner\n    {\n        require(_eths.length == _vestingAmts.length, \"Must submit arrays of equal length.\");\n\n        for (uint i = 0; i < _eths.length; i++) {\n            Claim storage claimData = claims[_eths[i]];\n            require(!hasClaimed(_eths[i]), \"Account must not be claimed.\");\n            require(claimData.vested == 0, \"Account must not be vested already.\");\n            require(_vestingAmts[i] != 0, \"Vesting amount must be greater than zero.\");\n            claimData.vested = _vestingAmts[i];\n            emit Vested(_eths[i], _vestingAmts[i]);\n        }\n    }\n\n    /// Allows owner to increase the vesting on an allocation, whether it is claimed or not.\n    /// @param _eths The addresses for which to increase vesting.\n    /// @param _vestingAmts The amounts to increase the vesting for each account.\n    function increaseVesting(address[] calldata _eths, uint[] calldata _vestingAmts)\n        external\n        only_owner\n    {\n        require(_eths.length == _vestingAmts.length, \"Must submit arrays of equal length.\");\n\n        for (uint i = 0; i < _eths.length; i++) {\n            Claim storage claimData = claims[_eths[i]];\n            // Does not require that the allocation is unclaimed.\n            // Does not require that vesting has already been set or not.\n            require(_vestingAmts[i] > 0, \"Vesting amount must be greater than zero.\");\n            uint oldVesting = claimData.vested;\n            uint newVesting = oldVesting + _vestingAmts[i];\n            // Check for overflow.\n            require(newVesting > oldVesting, \"Overflow in addition.\");\n            claimData.vested = newVesting;\n            emit VestedIncreased(_eths[i], newVesting);\n        }\n    }\n\n    /// Allows owner to increase the `saleAmount` for a pubkey by the injected amount.\n    /// @param _pubkeys The public keys that will have their balances increased.\n    /// @param _amounts The amounts to increase the balance of pubkeys.\n    function injectSaleAmount(bytes32[] calldata _pubkeys, uint[] calldata _amounts)\n        external\n        only_owner\n    {\n        require(_pubkeys.length == _amounts.length);\n\n        for (uint i = 0; i < _pubkeys.length; i++) {\n            bytes32 pubkey = _pubkeys[i];\n            uint amount = _amounts[i];\n\n            // Checks that input is not zero.\n            require(amount > 0, \"Must inject a sale amount greater than zero.\");\n\n            uint oldValue = saleAmounts[pubkey];\n            uint newValue = oldValue + amount;\n            // Check for overflow.\n            require(newValue > oldValue, \"Overflow in addition\");\n            saleAmounts[pubkey] = newValue;\n\n            emit InjectedSaleAmount(pubkey, newValue);\n        }\n    }\n\n    /// A helper function that allows anyone to check the balances of public keys.\n    /// @param _who The public key to check the balance of.\n    function balanceOfPubkey(bytes32 _who) public view returns (uint) {\n        address[] storage frozenTokenHolders = claimsForPubkey[_who];\n        if (frozenTokenHolders.length > 0) {\n            uint total;\n            for (uint i = 0; i < frozenTokenHolders.length; i++) {\n                total += allocationIndicator.balanceOf(frozenTokenHolders[i]);\n            }\n            return total + saleAmounts[_who];\n        }\n        return saleAmounts[_who];\n    }\n\n    /// Freezes the contract from any further claims.\n    /// @dev Protected by the `only_owner` modifier.\n    function freeze() external only_owner {\n        endSetUpDelay = UINT_MAX;\n    }\n\n    /// Allows anyone to assign a batch of indices onto unassigned and unclaimed allocations.\n    /// @dev This function is safe because all the necessary checks are made on `assignNextIndex`.\n    /// @param _eths An array of allocation addresses to assign indices for.\n    /// @return bool True is successful.\n    function assignIndices(address[] calldata _eths)\n        external\n        protected_during_delay\n    {\n        for (uint i = 0; i < _eths.length; i++) {\n            require(assignNextIndex(_eths[i]), \"Assigning the next index failed.\");\n        }\n    }\n\n    /// Claims an allocation associated with an `_eth` address to a `_pubKey` public key.\n    /// @dev Can only be called by the `_eth` address or the amended address for the allocation.\n    /// @param _eth The allocation address to claim.\n    /// @param _pubKey The Polkadot public key to claim.\n    /// @return True if successful.\n    function claim(address _eth, bytes32 _pubKey)\n        external\n        after_set_up_delay\n        has_allocation(_eth)\n        not_claimed(_eth)\n    {\n        require(_pubKey != bytes32(0), \"Failed to provide an Ed25519 or SR25519 public key.\");\n        \n        if (amended[_eth] != address(0x0)) {\n            require(amended[_eth] == msg.sender, \"Address is amended and sender is not the amendment.\");\n        } else {\n            require(_eth == msg.sender, \"Sender is not the allocation address.\");\n        }\n\n        if (claims[_eth].index == 0 && !claims[_eth].hasIndex) {\n            require(assignNextIndex(_eth), \"Assigning the next index failed.\");\n        }\n\n        claims[_eth].pubKey = _pubKey;\n        claimed.push(_eth);\n        claimsForPubkey[_pubKey].push(_eth);\n\n        emit Claimed(_eth, _pubKey, claims[_eth].index);\n    }\n\n    /// Get the length of `claimed`.\n    /// @return uint The number of accounts that have claimed.\n    function claimedLength()\n        external view returns (uint)\n    {   \n        return claimed.length;\n    }\n\n    /// Get whether an allocation has been claimed.\n    /// @return bool True if claimed.\n    function hasClaimed(address _eth)\n        public view returns (bool)\n    {\n        return claims[_eth].pubKey != bytes32(0);\n    }\n\n    /// Get whether an address has an allocation.\n    /// @return bool True if has a balance of FrozenToken.\n    function hasAllocation(address _eth)\n        public view returns (bool)\n    {\n        uint bal = allocationIndicator.balanceOf(_eth);\n        return bal > 0;\n    }\n\n    /// Assings an index to an allocation address.\n    /// @dev Public function.\n    /// @param _eth The allocation address.\n    function assignNextIndex(address _eth)\n        has_allocation(_eth)\n        not_claimed(_eth)\n        internal returns (bool)\n    {\n        require(claims[_eth].index == 0, \"Cannot reassign an index.\");\n        require(!claims[_eth].hasIndex, \"Address has already been assigned an index.\");\n        uint idx = nextIndex;\n        nextIndex++;\n        claims[_eth].index = idx;\n        claims[_eth].hasIndex = true;\n        emit IndexAssigned(_eth, idx);\n        return true;\n    }\n\n    /// @dev Requires that `_eth` address has DOT allocation.\n    modifier has_allocation(address _eth) {\n        require(hasAllocation(_eth), \"Ethereum address has no DOT allocation.\");\n        _;\n    }\n\n    /// @dev Requires that `_eth` address has not claimed.\n    modifier not_claimed(address _eth) {\n        require(\n            claims[_eth].pubKey == bytes32(0),\n            \"Account has already claimed.\"\n        );\n        _;\n    }\n\n    /// @dev Requires that the function with this modifier is evoked after `endSetUpDelay`.\n    modifier after_set_up_delay {\n        require(\n            block.number >= endSetUpDelay,\n            \"This function is only evocable after the setUpDelay has elapsed.\"\n        );\n        _;\n    }\n\n    /// @dev Requires that the function with this modifier is evoked only by owner before `endSetUpDelay`.\n    modifier protected_during_delay {\n        if (block.number < endSetUpDelay) {\n            require(\n                msg.sender == owner,\n                \"Only owner is allowed to call this function before the end of the set up delay.\"\n            );\n        }\n        _;\n    }\n}\n",
  "sourcePath": "/home/logan/Work/w3f/polkadot-claims/contracts/Claims.sol",
  "compiler": {
    "name": "solc",
    "version": "0.5.13+commit.5b0b510c.Emscripten.clang"
  },
  "schemaVersion": "3.0.9",
  "updatedAt": "2020-01-08T16:00:17.340Z",
  "devdoc": {
    "author": "Web3 Foundation",
    "methods": {
      "amend(address[],address[])": {
        "details": "The given arrays must be same length and index must map directly.",
        "params": {
          "_amends": "An array of the new addresses which can claim those allocations.",
          "_origs": "An array of original (allocation) addresses."
        }
      },
      "assignIndices(address[])": {
        "details": "This function is safe because all the necessary checks are made on `assignNextIndex`.",
        "params": {
          "_eths": "An array of allocation addresses to assign indices for."
        },
        "return": "bool True is successful."
      },
      "balanceOfPubkey(bytes32)": {
        "params": {
          "_who": "The public key to check the balance of."
        }
      },
      "claim(address,bytes32)": {
        "details": "Can only be called by the `_eth` address or the amended address for the allocation.",
        "params": {
          "_eth": "The allocation address to claim.",
          "_pubKey": "The Polkadot public key to claim."
        },
        "return": "True if successful."
      },
      "claimedLength()": {
        "return": "uint The number of accounts that have claimed."
      },
      "freeze()": {
        "details": "Protected by the `only_owner` modifier."
      },
      "hasAllocation(address)": {
        "return": "bool True if has a balance of FrozenToken."
      },
      "hasClaimed(address)": {
        "return": "bool True if claimed."
      },
      "increaseVesting(address[],uint256[])": {
        "params": {
          "_eths": "The addresses for which to increase vesting.",
          "_vestingAmts": "The amounts to increase the vesting for each account."
        }
      },
      "injectSaleAmount(bytes32[],uint256[])": {
        "params": {
          "_amounts": "The amounts to increase the balance of pubkeys.",
          "_pubkeys": "The public keys that will have their balances increased."
        }
      },
      "setVesting(address[],uint256[])": {
        "params": {
          "_eths": "The addresses for which to set vesting.",
          "_vestingAmts": "The amounts that the accounts are vested."
        }
      }
    },
    "title": "Claims         Allows allocations to be claimed to Polkadot public keys."
  },
  "userdoc": {
    "methods": {
      "amend(address[],address[])": {
        "notice": "Allows owner to manually amend allocations to a new address that can claim."
      },
      "assignIndices(address[])": {
        "notice": "Allows anyone to assign a batch of indices onto unassigned and unclaimed allocations."
      },
      "balanceOfPubkey(bytes32)": {
        "notice": "A helper function that allows anyone to check the balances of public keys."
      },
      "claim(address,bytes32)": {
        "notice": "Claims an allocation associated with an `_eth` address to a `_pubKey` public key."
      },
      "claimedLength()": {
        "notice": "Get the length of `claimed`."
      },
      "freeze()": {
        "notice": "Freezes the contract from any further claims."
      },
      "hasAllocation(address)": {
        "notice": "Get whether an address has an allocation."
      },
      "hasClaimed(address)": {
        "notice": "Get whether an allocation has been claimed."
      },
      "increaseVesting(address[],uint256[])": {
        "notice": "Allows owner to increase the vesting on an allocation, whether it is claimed or not."
      },
      "injectSaleAmount(bytes32[],uint256[])": {
        "notice": "Allows owner to increase the `saleAmount` for a pubkey by the injected amount."
      },
      "setVesting(address[],uint256[])": {
        "notice": "Allows owner to manually toggle vesting onto allocations."
      }
    }
  }
}