{
  "contractName": "Owned",
  "abi": [
    {
      "constant": true,
      "inputs": [],
      "name": "owner",
      "outputs": [
        {
          "name": "",
          "type": "address"
        }
      ],
      "payable": false,
      "stateMutability": "view",
      "type": "function"
    },
    {
      "anonymous": false,
      "inputs": [
        {
          "indexed": true,
          "name": "old",
          "type": "address"
        },
        {
          "indexed": true,
          "name": "current",
          "type": "address"
        }
      ],
      "name": "NewOwner",
      "type": "event"
    },
    {
      "constant": false,
      "inputs": [
        {
          "name": "_new",
          "type": "address"
        }
      ],
      "name": "setOwner",
      "outputs": [],
      "payable": false,
      "stateMutability": "nonpayable",
      "type": "function"
    }
  ],
  "bytecode": "0x608060405234801561001057600080fd5b50610172806100206000396000f3fe608060405234801561001057600080fd5b50600436106100365760003560e01c806313af40351461003b5780638da5cb5b14610063575b600080fd5b6100616004803603602081101561005157600080fd5b50356001600160a01b0316610087565b005b61006b61012e565b604080516001600160a01b039092168252519081900360200190f35b6000546001600160a01b031633146100d3576040805162461bcd60e51b815260206004820152600a60248201526927b7363c9037bbb732b960b11b604482015290519081900360640190fd5b600080546040516001600160a01b03808516939216917f70aea8d848e8a90fb7661b227dc522eb6395c3dac71b63cb59edd5c9899b236491a3600080546001600160a01b0319166001600160a01b0392909216919091179055565b6000546001600160a01b03168156fea265627a7a7230582041de3b7f19457146cc8fcdc6cd71dd7af374deddf3fc215c49d4386d53d3a1cb64736f6c63430005090032",
  "source": "/**\n * Source Code first verified at https://etherscan.io on Wednesday, October 11, 2017\n (UTC) */\n\n//! FrozenToken ECR20-compliant token contract\n//! By Parity Technologies, 2017.\n//! Released under the Apache Licence 2.\n\npragma solidity ^0.5.0;\n\n// Owned contract.\ncontract Owned {\n\tmodifier only_owner { require (msg.sender == owner, \"Only owner\"); _; }\n\n\tevent NewOwner(address indexed old, address indexed current);\n\n\tfunction setOwner(address _new) public only_owner { emit NewOwner(owner, _new); owner = _new; }\n\n\taddress public owner;\n}\n\n// FrozenToken, a bit like an ECR20 token (though not - as it doesn't\n// implement most of the API).\n// All token balances are generally non-transferable.\n// All \"tokens\" belong to the owner (who is uniquely liquid) at construction.\n// Liquid accounts can make other accounts liquid and send their tokens\n// to other axccounts.\ncontract FrozenToken is Owned {\n\tevent Transfer(address indexed from, address indexed to, uint256 value);\n\n\t// this is as basic as can be, only the associated balance & allowances\n\tstruct Account {\n\t\tuint balance;\n\t\tbool liquid;\n\t}\n\n\t// constructor sets the parameters of execution, _totalSupply is all units\n\tconstructor(uint _totalSupply, address _owner)\n        public\n\t\twhen_non_zero(_totalSupply)\n\t{\n\t\ttotalSupply = _totalSupply;\n\t\towner = _owner;\n\t\taccounts[_owner].balance = totalSupply;\n\t\taccounts[_owner].liquid = true;\n\t}\n\n\t// balance of a specific address\n\tfunction balanceOf(address _who) public view returns (uint256) {\n\t\treturn accounts[_who].balance;\n\t}\n\n\t// make an account liquid: only liquid accounts can do this.\n\tfunction makeLiquid(address _to)\n\t\tpublic\n\t\twhen_liquid(msg.sender)\n\t\treturns(bool)\n\t{\n\t\taccounts[_to].liquid = true;\n\t\treturn true;\n\t}\n\n\t// transfer\n\tfunction transfer(address _to, uint256 _value)\n\t\tpublic\n\t\twhen_owns(msg.sender, _value)\n\t\twhen_liquid(msg.sender)\n\t\treturns(bool)\n\t{\n\t\temit Transfer(msg.sender, _to, _value);\n\t\taccounts[msg.sender].balance -= _value;\n\t\taccounts[_to].balance += _value;\n\n\t\treturn true;\n\t}\n\n\t// no default function, simple contract only, entry-level users\n\tfunction() external {\n\t\tassert(false);\n\t}\n\n\t// the balance should be available\n\tmodifier when_owns(address _owner, uint _amount) {\n\t\trequire (accounts[_owner].balance >= _amount);\n\t\t_;\n\t}\n\n\tmodifier when_liquid(address who) {\n\t\trequire (accounts[who].liquid);\n\t\t_;\n\t}\n\n\t// a value should be > 0\n\tmodifier when_non_zero(uint _value) {\n\t\trequire (_value > 0);\n\t\t_;\n\t}\n\n\t// Available token supply\n\tuint public totalSupply;\n\n\t// Storage and mapping of all balances & allowances\n\tmapping (address => Account) accounts;\n\n\t// Conventional metadata.\n\tstring public constant name = \"DOT Allocation Indicator\";\n\tstring public constant symbol = \"DOT\";\n\tuint8 public constant decimals = 3;\n}\n",
  "sourcePath": "/home/volt/workspaces/w3f/polkadot-claims/contracts/FrozenToken.sol",
  "compiler": {
    "name": "solc",
    "version": "0.5.9+commit.e560f70d.Emscripten.clang"
  },
  "schemaVersion": "3.0.9",
  "updatedAt": "2019-07-04T09:53:38.293Z",
  "devdoc": {
    "methods": {}
  },
  "userdoc": {
    "methods": {}
  }
}